:040000006F10304508
:1000040000000000000000006F1050446F10104406
:1000140011BFF9F70000000000000000000000001C
:1000240000000000000000000000000000000000CC
:100034006F10D041000000006F105041000000001C
:100044006F10D0406F00B0256F1050406F101040FB
:100054006F0090246F00502D6F10503F6F10C051EF
:100064006F10D03E6F10C02A6F10503E6F10103EBC
:100074006F10D0276F10903D6F10503D6F10103DE2
:100084006F10D03C6F10903C6F10503C6F10103CC0
:100094006F10D03B000000000000000000000000D2
:1000A400000000000000000000000000000000004C
:0C00B40000000000000000000000000040
:1000C000B7870040194798D38280B787004013074D
:1000D000001498C34947D8C337574C00130717B4C7
:1000E000944B918ABDE623AE070623AC070623A6F0
:1000F000070823A4070823AE070823AC070823A694
:10010000070A23A4070A23AE070A23AC070A23A67B
:10011000070C23A4070C23AE070C23AC070C23A663
:10012000070E23A4070E4D47D8D337070300130744
:10013000170298D323A807069843014513672700A1
:1001400098C337C710001307D7C798C70947D8C344
:1001500082807D1751F70545828013051002828049
:1001600093178501E1879376750063DF0700B70772
:100170000001B397D70099C937860040345AD58F0C
:100180003CDA2385A1868280C167E5B7B786004047
:10019000B05A93C7F7FFF18FBCDA238501868280BE
:1001A000B787004088DF828001CD378700401C532D
:1001B00037060800D18F1CD38547A384F18682803F
:1001C000378600401C523707F8FF7D17F98F1CD285
:1001D000A38401868280B787004093878707120532
:1001E0003E951C4113D707012310F6007D8BF18348
:1001F0002380E5009D8B2380F6008280B787004036
:100200009387870712053E951C414206EA054D8EED
:100210005D8E10C18280B7870040938787071205E3
:100220003E951C413707E003F98F1CC18280B787D8
:1002300000409387870712053E951C4186078583FA
:100240001CC18280B78700409387870712053E95BF
:1002500008416181137505088280378800401308C2
:10026000C80712054295D6073708E003B3F7070120
:10027000F205CD8F6A06D18FC206D58F1377F77F2F
:10028000D98F1CC18280B78700409387C7071205AA
:100290003E956A06F2051C414D8EC206558E1377B7
:1002A000F77F598E5D8E10C18280B787004093879B
:1002B000C70712053E951C41860785831CC18280B5
:1002C000B78700409387C70712053E951C41370743
:1002D000E003F98F1CC18280B78700409387C7076E
:1002E00012053E950841618113750508828083C718
:1002F000A186A98F9D8B99E7B787004088572181F8
:100300007D898280B787004012059387C7073E9595
:1003100008414181F5B703C705009377F5006205F1
:10032000B706E00356076185758F9207B7860040D0
:10033000635705009386C607B69798C38280938655
:100340008607DDBF9377F50062058A079A05618508
:10035000DD8D6358050093E53500B7870040ECC399
:10036000828093E51500D5BF378700401C53620596
:10037000A207A1831CD31C535D8D08D382803787CD
:1003800000405C43F19B5D8D48C31C4B918BF5FF96
:100390008280B7870040885361818280B70702203E
:1003A00003C7070093760706C1E29387070083C659
:1003B00017000D466389C60213061003638CC6043A
:1003C00005466393C6067D8B8946631FD7040111DA
:1003D00006CE03C547009305F100A3070100253FA2
:1003E000F2400561828083C72700130700036399E9
:1003F000E700378700401C43C166D58F1CC382804D
:10040000130710036392E702378700401C43B706C7
:100410000200E5B703C7370083C727002207BA9752
:10042000378700401CDF82808280378700405C5322
:10043000411122C406C613F4F70FA18B89CBA14743
:100440005CD383C7918681C7085BEF00D01E93778A
:10045000140063860712378400405C505450A18317
:10046000B1829D8B858A639F070EA9CE852B83C69B
:100470008186850693F6F60F2384D18683C681860E
:10048000FD8A2384D18619E923840186B7070104F4
:100490003CDC232E040693071004B1A0232C040691
:1004A0007C5CB70620EC03C78186938606C0F58F77
:1004B000C98F5607D98F37050114C98F7CDC930784
:1004C000300415A03C5C1397170063530704232CDA
:1004D0000406E935FD2CC167FD17631FF500B7075A
:1004E00000187CDC8D477CC0B78700400547D8D317
:1004F000B240224441018280B707010429C9930711
:100500000020E3E3A7FEB70701145D8D68DC45BF5B
:100510003C5C1397270063580700852B232E0406A5
:10052000232C0406D1B7252303C77186050713774B
:10053000F70FA383E18603C771867D8BA383E186D2
:1005400009C983C7718637070104D607D98F3CDCF8
:1005500099B73707010438DC1307100478C0A38368
:10056000018659B7FD1737070020130787018A074F
:10057000BA9781C69C43829785BFDC4FEDBF09883F
:1005800025D8B7870040B84F9306000A1377071E97
:100590006319D7001307002CB8C723A6070423A8A4
:1005A0000704B7870040094799B73D432A8763731B
:1005B000C3029377F700BDEFADE5937606FF3D8A62
:1005C000BA960CC34CC30CC74CC74107E36BD7FEAC
:1005D00011E28280B306C3408A0697020000969615
:1005E0006780A6002307B700A306B7002306B7005D
:1005F000A305B7002305B700A304B7002304B70081
:10060000A303B7002303B700A302B7002302B70078
:10061000A301B7002301B700A300B7002300B70070
:10062000828093F5F50F93968500D58D93960501FD
:10063000D58D61B793962700970200009696868223
:10064000E78086FA9680C1171D8F3E96E374C3F843
:10065000A5B7B7E700E04147B443B8C30547331532
:10066000A70023A0A718B4C38280B71700401307C0
:1006700070052380E700130780FA2380E700130743
:1006800010042383E7008280411106C621C5353C52
:1006900037070220B787004013070700F8DB37272A
:1006A00002201307072023A0E708370702201307BB
:1006B000072023AAE708371702201307072023A8DB
:1006C000E708B24013075070B8DB05468545094579
:1006D00041012DB609456531B787004013078002F7
:1006E00098C34D47D8C3B24023A407004101C9BAFB
:1006F000011156C2B70A022022CC26CA4EC606CE27
:100700004AC852C413870A0083471700035767007B
:100710009384418323A8E1822380F400130710020D
:1007200093890A0013840183638CE7041307200272
:100730006389E706130700026398E70605468545C7
:1007400001456D3C0329040093070020CA8463F42B
:1007500027019304002026869385290313850A0028
:10076000EF10A073938781839843139A0401330990
:100770009940BA94135A0A012320240184C381A00A
:10078000B707002083A7070B239B09022399F902CF
:10079000C183239AF902A147238CF9029D471CC00B
:1007A00055B7EF10601479BF373500001305C52524
:1007B000EF10B00BFD57416A2380F4007D1AF24020
:1007C00062445285D2444249B249224A924A056162
:1007D000828001113705022022CC06CE26CA4AC8E3
:1007E0004EC652C456C29306050083C7160003D7EF
:1007F000660003C6060013880183238AF182232042
:10080000E8001376060611CA6244F240D244424917
:10081000B249224A924A0561E1BD19469385418356
:10082000138401836389C70693080500636AF6028F
:1008300005476381E718638907160D470149638AF5
:10084000E7021547638DE71437350000FD571305A0
:10085000452641692380F5007D19EF10100111A88C
:100860002D4701496387E700636FF7002547E39D44
:10087000E7FCF24062444A85D2444249B249224AE6
:10088000924A05618280130700030149E383E7FE72
:100890001307100345BF03C63600094893848183BC
:1008A000630E06076369C80085476304F602FD57B7
:1008B0002380F5003DA08D47630BF606BD47E31886
:1008C000F6FED94763F3E7001CC08D67938747198D
:1008D00001A8C94763F3E7001CC08D679387872190
:1008E0009CC0032A040093070020D28963F44701C7
:1008F0009309002083AA0400139909014E86330A44
:100900003A41D68513050500D699EF1000591359C1
:1009100009012320440123A03401A1BF93075005FE
:1009200063F3E7001CC08D679387071C55BF83C71F
:10093000260063840705636DF8008DCB8546E39838
:10094000D7F6A14763F3E7001CC09387418149BFF5
:10095000638EC7029306E00EE39BD7F4C94763F3A7
:10096000E7001CC08D679387C71A9DBF914763F34B
:10097000E7001CC093870181A5B79307600263F36A
:10098000E7001CC08D679387C72299BFD94763F3DF
:10099000E7001CC0B70700209387070091B783C703
:1009A000280001491CC0F1B52390E600232008006F
:1009B0000949C1B503C74600930720080149E31A56
:1009C000F7EA0945F5380147854605468545094555
:1009D0005D38854513052008B53261BD03C74183E5
:1009E000011156C206CE22CC26CA4AC84EC652C4EF
:1009F0009947814A6313F70483A4018313070020F6
:100A0000138A0183268463749700130400201389DA
:100A100081838329090037050220931A0401228665
:100A2000818CCE85130505004E94EF10004793DAB4
:100A30000A0123209A0023208900F240624456854F
:100A4000D2444249B249224A924A05618280411108
:100A5000B707022006C69387070003C5170003C720
:100A6000270083C6070083C73700420722053A954F
:100A70003695E2073E95B707002023A8A70AEF00A6
:100A8000B02CB24001454101828003C741839547A4
:100A90006315F70003A50183C1B882807932730022
:100AA0002030411122C637240040834724004545A9
:100AB00093E717002301F400693E89472300F400FF
:100AC0009387518303C707008546639EE60051451F
:100AD00023800700BD3E5545AD3E01457536324485
:100AE00041017300203013845183834704000D4774
:100AF000630AF7025145B13E5545A13E01456936AD
:100B00003735000013054525EF102056B7970040F4
:100B100023A0070037070002B7E700E023A0E71093
:100B20000545612685472300F40055BF411122C6C3
:100B3000378400405C4413973701635A07009307DA
:100B400020141CC00145EFF09F8385675CC4B78704
:100B50000040D847058B29C70547D8C71387C183ED
:100B60008346070093F6F60F81CE93060028B4C79C
:100B7000B70602009106F4C723A807042300070064
:100B80000D474545A38AE182E934B727004009476C
:100B90002380E700654523810700653C0145312638
:100BA000378700405C47918B91C791475CC70945E7
:100BB000EFF0EFFC378700405C47A18B9DCBA1474E
:100BC0005CC701450547A38AE1827D3C514551340C
:100BD000B727004009472380E700238107004545E8
:100BE0008D3CB7E700E03707000223A0E71005457A
:100BF0006D2CB7870040D8479316B70063D806001E
:100C000037071000D8C70945EFF06FF73784004069
:100C10005C4493F7074099CF930700405CC41C489D
:100C2000858B638A07180945EFF06FF55C4005670F
:100C3000D98F5CC0B7860040D84685679387078008
:100C40007D8F01CB0546238EC182DCC60145EFF0C6
:100C50000FF3378400405C4413972701635B07025E
:100C600089675CC40945EFF08FF15C4093E707109A
:100C70005CC0B7870040984B098B75FFD843094586
:100C80001377F7EFD8C3EF10C017C5320145EFF067
:100C9000AFED378400405C44139707016357070C9E
:100CA0001C50370700808146D98F1CD0A1675CC4D7
:100CB0000147014681450545232E0406EFF0AFDCD0
:100CC00001478146014681450945EFF0CFDB0147E9
:100CD0008146014681450D45EFF0EFDA0147814637
:100CE000014681451145EFF00FDA01478146014683
:100CF00081451545EFF02FD90147814601468145D1
:100D00001945EFF04FD801478146014681451D4501
:100D1000EFF06FD7014681450545EFF02FCE014634
:100D200081450945EFF08FCD014681450D45EFF036
:100D3000EFCC014681451145EFF04FCC014681458E
:100D40001545EFF0AFCB014681451945EFF00FCBCC
:100D5000014681451D45EFF06FCA0145EFF0CFE038
:100D60005C4041777D17F98F5CC0378400405C445C
:100D700093F7070499C70545EFF06FE09307000468
:100D80005CC4378400405C4493F7070299C7094567
:100D9000EFF0EFDE930700025CC4378400405C4450
:100DA000C18B91C70945EFF08FDDC1475CC4324468
:100DB000410173002030094523240400EF10600432
:100DC000EFF0BF8A85BD01119306D1001306E10043
:100DD0006C00094506CEEFF00FC00357E10009454E
:100DE0002398E184EFF02FC3014681450945EFF0D8
:100DF000EFC0F240238601840561828041110945DC
:100E000006C6EFF0EFCB014781460146854509450F
:100E1000EFF06FC7B240238E01844101828082804F
:100E200082808280828082808280828082808280B2
:100E30008280828082808280B797004013070004FE
:100E40002388E7003147A388E700130700042398AD
:100E5000E70493060020239AD70437070220239C37
:100E6000D70413070700D8CB372702201307072022
:100E7000D8DB370702201307072098DF3717022037
:100E800013070720D8CF2398070609472389E706C9
:100E9000A3890706239A0706238BE706239CD70618
:100EA000238DE706A38D07068280B797004001CD0A
:100EB00023800700130790032380E70013077002C5
:100EC0002381E70095BF19472380E7008280B7069A
:100ED0000220138706008347170013060002638B66
:100EE000C7026369F600094701456387E704416566
:100EF0007D158280130610026385C7021307200246
:100F0000E397E7FE411106C6EF00101EB24001450F
:100F100041018280B79700402147A389E706014538
:100F2000828083A78180231207001D4523A0F6003D
:100F3000A1472303F70082808280011122CC93878E
:100F4000E18306CE26CA4AC84EC62390070083C74F
:100F5000018437050220AD4693F7F70F03470500DC
:100F60001384E18363E5F6028D668A079386C626BD
:100F7000B6979C4382879306050083C736000946CF
:100F8000638DC7046367F60085466385D702FD5706
:100F900091A08D45638FB704BD46E39AD7FE8D6758
:100FA0009387C72923A4F1849386218403D606005E
:100FB000D94719A88D679387872F23A4F184938637
:100FC000218403D60600C94763E6C70083D706001D
:100FD000C207C1832310F4003DA08D679387472B80
:100FE00023A4F1849386218403D60600930730045A
:100FF000E1BF83C6260085456389B608ADCE638010
:10100000C60AE396F6F883560400C167FD178144CB
:10101000638BD70483570400C207C183A9C78357D2
:1010200004009306F0039304000463E6F60083547F
:101030000400C204C18062076187635F07001389EF
:10104000818483290900268613050500CE85A6998B
:10105000EF00B0642320390183570400858FC20755
:10106000C1832310F400F240624426854249D244F1
:10107000B249056182809387C18123A4F18493865C
:10108000218403D60600914781B79387018223A468
:10109000F1849386218403D60600A14735B78D6776
:1010A0009387C73023A4F1849386218403D6060056
:1010B0009307600211BF9307050083C62700A38C26
:1010C000D18691B783C7A1872300F500854719B75B
:1010D000B796004083C786008D8B8DE3930600048E
:1010E0002392D1809306050083C6260093878187CB
:1010F0002381D70085462382D70031B783C7860076
:1011000089468D8BE390D7FEA146D9BF9377F7012F
:101110008946639DD7049306050083C64600638B0A
:10112000F60263EAD7008547E393F6E6B7970040F7
:10113000A38B0706C9BD130610086382C6021306F7
:101140002008E396C6E4B7960040239C0606238D4C
:10115000F60655BDB7970040238D07066DB5B796C7
:101160000040239A0606238BF60671BDE39107E241
:101170009307050083C627008547E396F6E8938723
:10118000818783C63700F99AA381D700ADBD9376D6
:10119000F701E38E06DE8947E39BF6DE9307050041
:1011A00003C62700E31506DE83C74700638FD70217
:1011B00063EEF6008546E39CD7DCB796004083C714
:1011C000760793E73700A38BF60635BD9306100824
:1011D0006386D70293062008E39BD7DAB7960040D0
:1011E00083C7A60793E737009DB7B796004083C72C
:1011F000B60793E73700A38DF60631B5B7960040E2
:1012000083C7660793E73700B9BF89472310F40007
:101210009307050083C747002310050093061008B5
:10122000639CD700B797004083C767078D468D8BB7
:10123000E39BD7DC854749BD8546639DD700B796BC
:10124000004083C676070D468D8AE39EC6DA2300EA
:10125000F50049B313062008639FC700B797004005
:1012600083C7A7078D8B0D46E39FC7D82300D50002
:101270002310D40049BB0946E397C7D8B79700406D
:1012800083C7B707C5B783C70184011106CE22CC37
:1012900026CA4AC84EC693F7F70F15476384E70678
:1012A000194701446398E7049387E18383D70700D4
:1012B0001307F0039384E183130400046366F700CB
:1012C00003D40400420441801389818483290900E6
:1012D000370502202286CE8513050500EF00F03B7E
:1012E00083D70400A29923203901818FC207C183CB
:1012F0002390F4002285F2406244D2444249B2492C
:101300000561828003C79187B79700400144A3819C
:10131000E700CDB7411122C6379400408347A400AF
:1013200093F7F70F13F7070225C7B707022003C784
:1013300007009387070003C617002382E1842380F8
:10134000C18483D66700137707062391D1840DCB20
:10135000BD3EC167FD176317F502B797004023989C
:1013600007060D472389E706A389E706B7970040DC
:10137000130700022385E700324441017300203047
:101380006D3EC1BFB79700402398A7062147D9BF3C
:1013900013F72700630607140347B4008347B4001C
:1013A0003D8B91838D8B01CB8946630FD70CB7970B
:1013B00000400947C1B70947639BE702E93509E9DE
:1013C000A147A309F4062318040623090406C5B798
:1013D0002318A4068347240793C787002309F4062C
:1013E0008347240793F7C70F2309F406C9B7E1F32E
:1013F0009386E1830357C40083D606009387E18375
:101400006377D7060357C40083D60700420741839A
:101410003387E640420741832390E70083D70700E4
:10142000C207C183A1CBB797004003C73707134753
:101430008700A389E70603C737071377C70FA38978
:10144000E706B707022083C607009387070003C596
:10145000170003C7270083C73700220542073A95C4
:101460003695E2073E9523A4A180F92889B703D7D2
:10147000070059BFB79700402398070621472389E3
:10148000E706A389070675BF6395E702231C0406D8
:101490008347A40793C78700230DF4068347A40757
:1014A00093F7C70F93E72700230DF406238E0184DB
:1014B000FDBDE39E07EE8357C400C207C183239896
:1014C000F1848347B40793C78700A30DF4068347CD
:1014D000B40793F7C70F93E72700A30DF406C1BD28
:1014E00013F7170039CBEFF03F958547A3010400B0
:1014F0002305F40083C75183054793F7F70FE39D56
:10150000E7E637E700E0B70610002320D710B7065C
:1015100020002320D710B70602002320D71037550C
:10152000FE03372700402301F7001305056CEF0089
:1015300090150545EFF04F9581B5918BE38E07E24D
:1015400091472305F4000DBD8280B7370040130793
:10155000003223A6E78009472380E78011472380D4
:10156000E78003C72780136717002381E780B7E769
:1015700000E03707800023A0E710828041113AC6BF
:101580003EC43737004083476780858B89CF8547C6
:101590002303F7801387A185835707008507C207B8
:1015A000C1832310F7003247A24741017300203066
:1015B00001114EC606CE22CC26CA4AC89387C185E1
:1015C00083C7070093F7F70F6397071013872185E9
:1015D0000357070093868185420741832390E600E5
:1015E00003D70600938721851384818542074183B1
:1015F0006303070E035704009306F01F9389C18508
:101600001389A18563F7E60003C7C1841377F70F39
:1016100019C7035709009306803E63FEE60A138745
:1016200061858356070003570400938461853697CC
:101630009306004063DBE60083D6040013070040F6
:10164000158F420741832310E400835604001307DB
:1016500000206374D7002310E4008356040003D7EE
:1016600007003705022013050520158F4207418327
:101670002390E70083D50400B73702200356040007
:1016800093870720BE95EF0050010357040083D7CE
:101690000400BA97C207C1832390F40083D70400E3
:1016A0001307F03F6374F700239004008547094552
:1016B0002380F900EFE0DFC00357040085460546AC
:1016C00085450945EFE03FBC854513052008EFE05F
:1016D0007FC723100900F2406244D2444249B24914
:1016E0000561828001114EC606CE22CC26CA4AC8A8
:1016F0009387C18583C7070093F7F70F639E070E93
:10170000138721850357070093868185420741830C
:101710002390E60003D706009387218513848185F3
:101720004207418371CB035704009306F00F93895E
:10173000C1851389A18563E8E60003570900930674
:10174000803E63FBE60A13876185835607000357D3
:1017500004009384618536979306004063DBE600BE
:1017600083D6040013070040158F420741832310DE
:10177000E40083560400130700106374D70023109D
:10178000E4008356040003D7070037050220130541
:101790000520158F420741832390E70083D504007D
:1017A000B73702200356040093870720BE95F5251E
:1017B0000357040083D70400BA97C207C18323905C
:1017C000F40083D704001307F03F6374F7002390FD
:1017D000040085472380F90003570400B7970040B1
:1017E00042074183239CE70603C7A7071377C70F68
:1017F000238DE70623100900F2406244D244424997
:10180000B2490561828013870185035707009387DA
:1018100001854207418301CB03D707007D174207AB
:1018200041832390E7001387C1848346070093F622
:10183000F60FA1EA83D70700C207C183B9E383C7C4
:10184000C18593F7F70F95EF411106C623970184E1
:1018500085472300F700B7170220938707203787B3
:1018600000402328F7080945EFE0FF9A8545094520
:101870000546EFE0BF98B2408545094541016FE05C
:101880007FAC82809387018503D70700420741839D
:1018900005CF03D707007D17420741832390E70058
:1018A00083D70700C207C18385E337170220239738
:1018B000018413070720B7970040D8CF03C7B707A5
:1018C0001377C70FA38DE706828083C75183411129
:1018D00006C605476316F7007537B240410119B5D2
:1018E0001D37B2404101E9B1239A0184239B018451
:1018F000239901842398018423970184238E0184F2
:10190000239D0184239C01848280B7D7F0089387AC
:101910000718B3D7A7022945373700408546230764
:10192000D7409507B3D7A702C207C1832316F74054
:10193000930770FC2301F7408D47A301F7409307FD
:101940000004A300F740B7170040F84F13670718CB
:10195000F8CFB84313670710B8C38280B7170040A9
:10196000B843B7162000938606A0558FB8C3B84F6A
:10197000856693860680558FB8CFB84313670740B6
:10198000B8C38280411106C6D13FB767004003C784
:1019900007001377270F2380E70003C7070013779B
:1019A000E70F2380E70003C7070013674700238082
:1019B000E70003C707001377F7072380E70003C793
:1019C0000700136707042380E70003C707001367B6
:1019D00027002380E70003C7370013670702A381AE
:1019E000E70003C7370013671700A381E70003C7A9
:1019F00037001377B70FA381E70003C737001377CA
:101A0000770EA381E70003C717001377770EA38033
:101A1000E70003C72700136727002381E70003C7F8
:101A20002700136747002381E70037D7AB0313076D
:101A3000F7DE98D33767450313079778D8D337373E
:101A4000022013070760D8C7374702201307076033
:101A500098CB03C7170013673700A380E700B7E7E9
:101A600000E03707001023A0E710B2404101828058
:101A7000411122C437142707130504E006C6A52424
:101A8000130504E0B12E716513050520BD3D373502
:101A9000000013058536D12BEFF03FABB797004020
:101AA00023A0070037071000B7E700E023A0E710E6
:101AB0003707200023A0E7103707020023A0E71014
:101AC0003755FE03B727004005472381E70013057C
:101AD000056C552E0545EFE03FBB3735000013057B
:101AE0004539612313054006A126693DF93BFDBF39
:101AF000011122CE26CC4ACA4EC852C656C45AC27A
:101B0000B767004003C78702098B630507100947C1
:101B10002384E70203C4B70241886305041283A942
:101B2000C700B7070220BE99B767004083C7970276
:101B3000898B91C737350000130545333D23B767BF
:101B4000004083C79702918B91C73735000013057A
:101B50000534212B3767004083479702998BDDEBD3
:101B60009387018603AA0700050A23A0470171CCC9
:101B70000354670183D74185130700404204C2071D
:101B8000C1831D8F4207418041830149637A8700E9
:101B9000138907C04A9413190401135909013A849F
:101BA00003D54185373B0220130B0B202286CE85BF
:101BB0005A95E52483D74185A297C207C183239A0A
:101BC000F18483D72185A297C207C1832399F18429
:101BD000630B0902239A018403D5418593152400E0
:101BE0004A86CE955A95552C83D74185CA97C20708
:101BF000C183239AF18483D721853E9942091359E1
:101C0000090123992185373500002286D2851305E5
:101C100005353D2E3767004083478702918B89CB7E
:101C20009147373500002304F7021305C5353529E0
:101C30007244E2445249C249324AA24A124B0561F7
:101C40007300203083A90701E9BD0354A7011DB724
:101C500001A097F1FF1F9381E1C517210020130117
:101C6000613A171500001305257E97E5FF1F938540
:101C700065391386018363FAC5008322050023A01A
:101C8000550011059105E3EAC5FE1385018393858F
:101C900041886377B500232005001105E36DB5FE8B
:101CA00017E501201305053697E501209385853555
:101CB0006377B500232005001105E36DB5FE93029F
:101CC00080087390023097E2FFFF9382E23393E241
:101CD000120073905230970200009382A2D9739041
:101CE000123473002030B7470F0093870724335511
:101CF000F5029307C0031375F50F630CF50863ED48
:101D0000A700BD476303F504F9476303F506B7175A
:101D10000040238007008280930700066308F508CF
:101D2000930780076301F50A93070005E311F5FEA9
:101D3000B7170040130770052380E700130780FAE8
:101D40002380E7001307600481A0B7170040130742
:101D500070052380E700130780FA2380E70013074C
:101D600020042384E700130700F82385E70045B724
:101D7000B7170040130770052380E700130780FAA8
:101D80002380E700130700042384E700130720F8EB
:101D9000E9BFB7170040130770052380E70013075A
:101DA00080FA2380E70013078004F9BFB7170040CB
:101DB000130770052380E700130780FA2380E700EC
:101DC00013075004D1B7B7170040130770052380DD
:101DD000E700130780FA2380E700130740046DB77C
:101DE000B7177A00938707203355F5021375F50F5F
:101DF0002383A1869307803E3305F5022392A186B3
:101E00008280B7F700E0D84B759BD8CB03C76186BB
:101E10003305A70213071010C8C723A8070098C3EB
:101E200037F700E05C4B898BF5DF232007008280C9
:101E3000B7F700E0D84B759BD8CB03D74186330565
:101E4000A70213071010C8C723A8070098C337F7C5
:101E500000E05C4B898BF5DF2320070082808147FF
:101E600037370040A14663C4C700328582800345EE
:101E7000B740E38EA6FE3385F500034505008507D0
:101E80002304A740CDB7B7270040C8C70947238020
:101E9000E70051472380E7008280B3C7A5008D8B00
:101EA0003307C50081E78D4763EEC700AA876370DB
:101EB000E50A83C6050085078505A38FD7FEE3EAFB
:101EC000E7FE828093763500AA8791CA83C6050013
:101ED00085078505A38FD7FE93F63700FDB7937668
:101EE000C7FF138606FE63F0C70683A3050083A21F
:101EF000450083AF850003AFC50083AE050103AE87
:101F0000450103A3850183A8C5019385450223A04C
:101F1000770003A8C5FF23A2570023A4F70123A637
:101F2000E70123A8D70123AAC70123AC670023AE8A
:101F300017019387470223AE07FF75B790419107BA
:101F4000910523AEC7FEE3EBD7FEE3E4E7F682801C
:101F500039713EDA2ED232D436D63AD842DC46DE59
:101F60009387C18022CC804326CA06CEAA8409C4A6
:101F70001C4C99E3228515230C4454102686228597
:101F800036C6EF007016F2406244D244216182806E
:101F9000011126CA4AC806CE22CC4EC652C4AA8413
:101FA0002E8901C51C4D91E3CD299C4C804499E3B9
:101FB0002685E5219717000093874741631CF402AB
:101FC000C0408357C400A18BB1C71C48A1C7FD59AD
:101FD000294A1C4483450900FD17B1E91CC463DE8E
:101FE00007062286A94526857120FD576308F5025C
:101FF000294535A0971700009387473F6314F400E5
:102000008044C1B7971700009387473AE31BF4FA5F
:10201000C04445BFA2852685312A55D97D55F24059
:102020006244D2444249B249224A056182801CC4BA
:10203000050963D70700184C63CBE70063894501A6
:102040001C401387170018C02380B70059B7228699
:1020500026850D20E31F35F7D1B71C4013871700E5
:1020600018C029472380E70061B79387C180AA85FC
:10207000884339BF011122CC26CA4AC806CE4EC6B3
:10208000AA842E89328401C51C4D91E3392197170A
:1020900000009387A7336319F406C0401C4C1CC48E
:1020A0008357C400A18BC9C31C48BDCF1C4808403E
:1020B0009379F90F1379F90F1D8D5C486346F5008C
:1020C000A2852685652C2DE51C440505FD171CC43D
:1020D0001C401387170018C0238037015C486389B0
:1020E000A7008357C400858B81CBA9476316F900ED
:1020F000A285268561240DEDF24062444A85D244D2
:102100004249B24905618280971700009387072EE4
:102110006314F400804459B7971700009387072988
:10212000E31EF4F6C0449DBFA285268521203DDD37
:102130007D59D9B741119387C18026C2844322C4F7
:102140004AC006C62A892E8489C49C4C99E32685F8
:10215000A9269717000093876727631CF402C040E5
:102160000317C40093170701C18393F68700B5EEE8
:1021700093F607019DEEA5472320F9001367070496
:102180002316E4007D55B2402244924402494101A5
:10219000828097170000938767256314F4008044BA
:1021A000C1B79717000093876720E31BF4FAC04478
:1021B00045BF918B8DC74C5889C9930744046384EC
:1021C000F5004A85352B232A04028357C4002322B5
:1021D000040093F7B7FD2316F4001C481CC0835776
:1021E000C40093E787002316F4001C4881EF83574F
:1021F000C4001307002093F707286385E700A28532
:102200004A8585218357C40013F7170005C75C482A
:1022100023240400B307F0401CCC1C480145A5F75B
:102220008317C40013F7070839DF93E70704231661
:10223000F40089BF898B014791E3584818C4F1BF66
:1022400083D7C500011122CC26CA06CE4AC84EC685
:1022500013F78700AA842E8471EFD841634DE00004
:10226000B841634AE0000145F2406244D244424929
:10227000B2490561828058547DD703A90400939622
:10228000370123A0040063DD060670488357C400AD
:10229000918B99C75C401D8E5C5899C33C401D8E44
:1022A0005C540C50814626858297FD570357C40025
:1022B000631DF5009440F54763E8D706B707402053
:1022C0008507B3D7D700858BA5C31C4823220400FC
:1022D0001CC09317370163D80700FD576314F5003E
:1022E0009C4091E368C84C5823A02401ADDD9307BE
:1022F00044046384F50026852121232A0402A5B71E
:102300000C500146854626850297FD572A86E31F15
:10231000F5F69C40A5DF75476385E7005947639450
:10232000E70423A0240181B7136707042316E40000
:102330007D551DBF83A90501E38709F203A90500A7
:102340008D8B23A0350133093941014791E3D849E9
:1023500018C4E35A20F11C540C50CA864E862685B8
:1023600082976349A0008357C40093E707042316AC
:10237000F4007DBFAA993309A940E1BF9C49B9CFB8
:10238000011122CC06CE2A8411C51C4D81E72EC630
:102390002922B2459717000093874703639BF500F6
:1023A0004C408397C50095C722856244F240056181
:1023B00041BD97170000938767036394F5000C44B1
:1023C000CDB797170000938767FEE39CF5FC4C445C
:1023D000C9BFF240624401450561828001458280A7
:1023E000411122C406C62A842316B5002317C5004E
:1023F00023200500232205002324050023220506AF
:1024000023280500232A0500232C050021468145A9
:102410001305C505EFE06F9997170000938767B420
:102420005CD0971700009387C7B61CD4971700009D
:10243000938707BB5CD4971700009387C7BD00D074
:102440001CD8B24022444101828097050000938548
:1024500025F3A9A2411126C2130680069384F5FF35
:10246000B384C4024AC02E8922C406C69385440799
:10247000252E2A8401CD23200500232225013105A4
:1024800008C4138684068145EFE02F922285B2406E
:10249000224492440249410182801C4DADE3411126
:1024A00006C622C497070000938767FA1CD5938756
:1024B00081829C4323240504232605042328050444
:1024C0006314F50085471CCD2A841D2848C0228549
:1024D000052808C422852D2048C44840014691455E
:1024E000013708440546A545E53D48440946C94528
:1024F000C53D85471CCCB240224441018280828088
:1025000041119387818226C284434AC006C69C4CEF
:1025100022C42A8999E32685493793848404804418
:10252000DC40FD1763D607009C40B9CF8440C5BF8F
:102530000317C40039E7C177850723220406232047
:10254000040023220400232404005CC42328040084
:10255000232A0400232C0400214681451305C405C9
:10256000EFE0AF84232A0402232C04022324040472
:10257000232604042285B2402244924402494101A8
:1025800082801304840671BF91454A85E13588C075
:1025900051FDB1472320F9000144E9BF797122D4EC
:1025A0004AD052CC56CA5AC85EC606D626D24ECE9D
:1025B0002A8AAE8A130485040149054BFD5B09ECA8
:1025C000B25022544A8592540259F249624AD24A80
:1025D000424BB24B45618280044483294400FD197B
:1025E00063D409000040E1BF83D7C400637BFB00D4
:1025F0008397E40063877701A6855285829A3369C1
:10260000A90093848406E1BF1971A6DAAE8483958C
:10261000E500A2DC86DE328463DC050083D7C400DB
:1026200023A0060093F7070885E7930700401DA045
:10263000300836C6EF00B023B246E34105FE7247CC
:10264000BD67F98F7977BA9793B717009CC2F1BF2E
:10265000930700041CC0F6506654D6540145096126
:10266000828083D7C500011122CC06CE26CA4AC873
:10267000898B2E8489CF930774041CC01CC885479E
:102680005CC8F2406244D2444249056182807400D1
:102690003000AA84953FA2452A892685312201ED82
:1026A0008317C40013F7072069FFF19B93E7270006
:1026B0002316F400C9B797070000938747D99CD425
:1026C0008357C40008C008C893E707082316F4001E
:1026D000A2475CC8B24791CF8315E4002685EF007E
:1026E000B01B01C98357C400F19B93E71700231661
:1026F000F4008357C4003369F9002316240151B74D
:10270000DDC183A7C5FF411122C406C626C21384BA
:10271000C5FF63D307003E94AA84EF00D01E9387C1
:10272000C1869C4381EF2322040023A68186224494
:10273000B2402685924441016F00101D637EF40073
:1027400014403307D4006396E7009843DC43369780
:1027500018C05CC0D9BFBA87D84319C3E37DE4FE73
:1027600094433386D700631F86001040B29694C30B
:102770003386D700E31DC7FA10435843B29694C37B
:10278000D8C375B76375C400B1479CC04DB710403E
:10279000B306C4006316D70014435843B29614C05E
:1027A00058C0C0C369B78280011126CA938435001E
:1027B000F19806CE22CC4AC84EC6A104B14763F3B5
:1027C000F404B14463E2B4042A89EF00D013938780
:1027D000C18698433A8439E0938701879C4391E707
:1027E00081454A85892F23A8A186A6854A85A127E8
:1027F000FD5963193507B1472320F9004A85EF00D9
:10280000B01029A0E3D004FCB1471CC10145F2403F
:102810006244D2444249B249056182801C40858F9E
:1028200063CF0702AD4663F6F6001CC03E9404C0B9
:1028300031A05C406313870223A6F1864A85EF002E
:10284000B00C1305B4009307440061993307F540B9
:102850005DDF3A94898F1CC05DBF5CC3C5B722871A
:10286000404095BF130435007198E30285FCB30521
:10287000A4404A85C925E31C35FBB5BF1C46FD179E
:102880001CC663DA0700184E63C5E700A9476394C6
:10289000F5006FF02FFE1C422E851387170018C21B
:1028A0002380B7008280011122CC26CA4AC84EC6B6
:1028B00052C406CE2A89AE893284B304D6007D5A2A
:1028C00063149400014509A8834504004E864A8597
:1028D00075370504E31645FFF2406244D24442498D
:1028E000B249224A05618280357122CD26CB4AC980
:1028F0004EC706CF52C556C35AC1DEDEE2DCE6DA69
:10290000AA89AE843289368409C51C4D99E3EFF05B
:10291000DFB897170000938767AB639BF40C83A421
:10292000490083D7C400A18BF5C79C48E5C793072E
:102930000002A304F1029307000302D22305F1026F
:1029400022C6930B5002971A0000938A2AAC054CBA
:10295000294B4A848347040099C36390770FB30CD3
:102960002441638D0C00E6864A86A6854E85253F68
:10297000FD576306F51E9256E69636D2834704004D
:10298000638F071CFD571309140002C802CE3ECA0C
:1029900002CCA309010482D483450900154656855B
:1029A000B12713041900C24759E913F7070109C7F2
:1029B00013070002A309E10413F7870009C71307EF
:1029C000B002A309E104834609001307A002638053
:1029D000E608F2474A8481462546034704009305EA
:1029E0001400130707FD6379E60AB5CA3ECE85A831
:1029F000971700009387879F6395F40083A489004D
:102A00000DB7971700009387679AE39CF4F083A4AF
:102A1000C90001BFA6854E85EFF0CFF109D97D55DC
:102A2000FA406A44DA444A49BA492A4A9A4A0A4B5D
:102A3000F65B665CD65C0D618280050421BF3305C0
:102A400055413315AC00C98F3EC82289B1B7324712
:102A500093064700184336C6634907023ACE034738
:102A600004009307E002631FF70403471400930771
:102A7000A002631BF702B2470904138747009C4377
:102A80003AC663C107023ECA35A83307E04093E760
:102A900027003ACE3EC8E1B7B387670385462E8448
:102AA000BA9725BFFD57C5B7050402CA81468147BD
:102AB00025460347040093051400130707FD6376BA
:102AC000E606F1F2834504000D46171500001305D4
:102AD0006594292D11CD971700009387A7931D8D1D
:102AE00093070004B397A700424505045D8D2AC8EB
:102AF000834504001946171500001305E5911309D5
:102B000014002304B102DD233DC197D7FFFF938753
:102B1000674F95E74247B2471377071009CF9107F0
:102B20003EC69257D2973ED22DB5B38767038546EE
:102B30002E84BA97BDBF9D07E19BA107D5B778004A
:102B400097060000938666D626860C084E85970069
:102B50000000E7000000FD572A8AE314F5FC83D744
:102B6000C40093F70704E39C07EA125555BD7800AB
:102B700097060000938666D326860C084E85012AA8
:102B8000D9BF797156CA9C49BA8A984522D426D2AF
:102B90004ECE52CC06D64AD05AC85EC6AA892E84DA
:102BA000B284368A63D3E700BA879CC003473404F3
:102BB00019C385079CC01C4093F7070281C79C403E
:102BC00089079CC00329040013796900631A09006E
:102BD000130B9401FD5B5C449840998F634CF9049E
:102BE0001C408346340493F70702B336D000A5EBAC
:102BF00013063404D2854E85829AFD576303F5048B
:102C00001C4011469840998B544481446397C700F7
:102C1000B384E64063D3040081441C4418486354E1
:102C2000F700998FBE94014969047D5B6398240580
:102C3000014509A885465A86D2854E85829A631E2B
:102C400075017D55B250225492540259F249624A9C
:102C5000D24A424BB24B456182800509ADBF330772
:102C6000D40013060003A301C70403475404938749
:102C70001600A2978906A381E7049DBF8546228698
:102C8000D2854E85829AE30E65FB050945B77971B9
:102C900022D426D24AD04ECE06D652CC56CA5AC8D4
:102CA000B68983C68501930790063289AA842E844B
:102CB00013863504638DF60263E2D7069307800519
:102CC0006387F61863EDD70063800622930730040C
:102CD000638EF60A930A24042301D404C9A093073F
:102CE00030066385F60A93074006E395F6FE1C401E
:102CF000084393F6070893054500C5C61C410CC35D
:102D000063D807001307D002B307F040A301E4041F
:102D1000970600009386C67029476DA893070007A1
:102D20006383F61663E5D7029307E006638AF61815
:102D30009307F006E390F6FA0C401C4313F80508DD
:102D4000138547006307080608C39C438DA89307B3
:102D50005007E383F6FE93078007638AF612930712
:102D60003007E399F6F61C43D0418145938647002E
:102D700014C383AA07005685952E01C53305554116
:102D800048C05C401CC8A301040471A81C43930AFA
:102D90002404938647009C4314C32301F40485470D
:102DA000D5B793F607041C410CC3B9DAC207C18733
:102DB00081BF93F5050408C3C9D983D7070013075A
:102DC000F0066387E60E970600009386666529473E
:102DD000A30104044C400CC463C5050008406D9970
:102DE00008C099E3B28A91CDB28AB3F5E702FD1A21
:102DF000B69583C505002380BA00B3D5E70263FF0B
:102E0000E70AA147631EF7001C40858B91CB584011
:102E10001C4863C7E70093070003A38FFAFEFD1A5F
:102E20003306564110C84E87CA867000A285268593
:102E3000893B7D5A631E450B7D55B25022549254F6
:102E40000259F249624AD24A424B45618280A382CA
:102E5000D504970600009386A65C0C40084313F83F
:102E600005081C411105630D080208C313F715007E
:102E700001C793E505020CC04147B9FB0C4093F52F
:102E8000F5FD0CC0B1B79C4193E707029CC19307C5
:102E90008007A302F404970600009386A65975BF25
:102EA00013F8050408C3E30308FCC207C1837DBF10
:102EB000970600009386C656214719BFAE8735B7DF
:102EC00094411C43CC4913F8060813854700630658
:102ED000080008C39C438CC301A808C393F60604EA
:102EE0009C43F5DA2390B70023280400B28A25BF5B
:102EF00014485686CA8526858299E30F45F31C40FF
:102F0000898B8DE7B2474844E359F5F23E8535B7E2
:102F100085465686CA8526858299E30F65F1050A9E
:102F20005C443247998FE345FAFEE9BF014A930AB0
:102F300094017D5BF5B7411122C42A842E8523A01C
:102F4000018806C63D24FD576317F5009387018865
:102F50009C4391C31CC0B240224441018280411174
:102F600022C42E848395E50006C6452263490500E8
:102F70007C48AA977CC8B240224441018280835792
:102F8000C4007D777D17F98F2316F400EDB783D742
:102F9000C500011122CC26CA4AC84EC606CE93F7F8
:102FA0000710AA842E843289B68991C78395E500DB
:102FB0008946014631228357C4007D777D17F98FFA
:102FC0002316F4008315E4006244F240CE864A865C
:102FD000B24942492685D24405613DA8411122C427
:102FE0002E848395E50006C6E128FD570357C400EB
:102FF000631BF500FD77FD17F98F2316F400B2402F
:103000002244410182808567D98F2316F40068C865
:10301000FDB78395E50005A8411122C42A842E85B9
:10302000B285368623A0018806C6EFE05FE3FD5730
:103030006317F500938701889C4391C31CC0B2407D
:10304000224441018280411122C42A842E8523A07A
:10305000018806C6CD20FD576317F50093870188C8
:103060009C4391C31CC0B240224441018280411163
:1030700022C42A842E85B28523A0018806C6D120C9
:10308000FD576317F500938701889C4391C31CC0CB
:10309000B240224441018280411122C42A842E85FB
:1030A00023A0018806C66520FD576317F5009387A6
:1030B00001889C4391C31CC0B240224441018280DC
:1030C000411122C42A842E85B285368623A0018828
:1030D00006C66120FD576317F500938701889C435E
:1030E00091C31CC0B24022444101828093F5F50F88
:1030F0002A966314C5000145828083470500E38D4D
:10310000B7FE0505FDB782808280411122C42A8462
:103110002E85B285368623A0018806C6A920FD57D4
:103120006317F500938701889C4391C31CC0B2408C
:103130002244410182809307800523A0F1887D55B8
:1031400082809307800523A0F1887D5582809307B4
:10315000800523A0F188014582809307800523A084
:10316000F1887D5582809307800523A0F1887D55E5
:103170008280938741879C4391C73E9523AAA1866D
:103180003E858280938741883E9523AAA1863E850D
:1031900082800000050F16000207100206000000E2
:1031A0000A1003000E00010AFF07000012034D0081
:1031B0005300460054003100300030000100000090
:1031C00009025500020100806409040000010202A6
:1031D000010005240010010524010001042402025D
:1031E00005240600010705810300040806300000DD
:1031F000000009040100020A000000070582020025
:10320000040006300000000007050202000400066A
:10321000300000000000000012010003020000095D
:10322000861A0CFE0100010203010000260357006C
:1032300043004800200055005300420033002E0098
:10324000300020004400450056004900430045007E
:1032500020000000555342322E3000007374616C20
:103260006C000000207374616C6C20000A12000076
:103270000C1100008E0F00008E1100008E0F000058
:10328000B6100000760F00008E0F0000C410000082
:10329000D01000000610000006100000050F1600F8
:1032A00002071002020000000A1003000E00010ACB
:1032B000FF070000090243000201008032090400F8
:1032C0000001020201000524001001052401000193
:1032D00004240202052406000107058103400001C1
:1032E00009040100020A0000000705820200020032
:1032F0000705020200020000120100020200004065
:10330000861A0CFE0100010203010000260357008B
:1033100043004800200055005300420032002E00B8
:10332000300020004400450056004900430045009D
:1033300020000000435243206572720D000000001F
:103340004E554D5F4D4953206572720D00000000CF
:103350005B25755D522025750D0A00004649464FD4
:10336000204F560D00000000434835367820555355
:1033700042332E30202620555342322E30206465B1
:103380007669636520746573742838304D487A29EE
:10339000202100004853504920536C617665204D30
:1033A0004F44450D00000000000000000000000038
:1033B000000000000000000000000000000000000D
:1033C00000000000000000000000000000000000FD
:1033D00000000000000000000000000000000000ED
:1033E00000000000000000000000000000000000DD
:1033F00000000000000000000000000000000000CD
:103400000000000000000000232D302B20000000F1
:10341000686C4C00656667454647000030313233C2
:1034200034353637383941424344454600000000C0
:10343000303132333435363738396162636465662A
:043440000000000088
:1034440016033000310032003300340035003600FA
:1034540037003800390000001E0E0000FC0D00008B
:10346400200E0000220E0000240E0000260E000094
:10347400280E00002A0E0000C60D00002C0E0000CD
:103484002E0E0000300E0000320E0000340E00003C
:1034940000000000C8330000E8330000A833000037
:1034A4000000000000000000000000000000000018
:1034B4000000000000000000000000000000000008
:1034C40000000000000000000000000000000000F8
:1034D40000000000000000000000000000000000E8
:1034E40000000000000000000000000000000000D8
:1034F40000C201000002000000C2010050000020D0
:1035040004030904080357004300480004030904A2
:10351400080357004300480050000020000000004A
:103524000000000000000000000000000000000097
:103534000000000000000000000000000000000087
:103544000000000000000000000000000000000077
:103554000000000000000000000000000000000067
:00000001FF
